{
  "abi": [
    {
      "inputs": [
        {
          "internalType": "address",
          "name": "gateway_",
          "type": "address"
        }
      ],
      "stateMutability": "nonpayable",
      "type": "constructor"
    },
    {
      "inputs": [],
      "name": "InvalidAddress",
      "type": "error"
    },
    {
      "inputs": [],
      "name": "NotApprovedByGateway",
      "type": "error"
    },
    {
      "inputs": [
        {
          "internalType": "bytes32",
          "name": "commandId",
          "type": "bytes32"
        },
        {
          "internalType": "string",
          "name": "sourceChain",
          "type": "string"
        },
        {
          "internalType": "string",
          "name": "sourceAddress",
          "type": "string"
        },
        {
          "internalType": "bytes",
          "name": "payload",
          "type": "bytes"
        }
      ],
      "name": "execute",
      "outputs": [],
      "stateMutability": "nonpayable",
      "type": "function"
    },
    {
      "inputs": [
        {
          "internalType": "bytes32",
          "name": "commandId",
          "type": "bytes32"
        },
        {
          "internalType": "string",
          "name": "sourceChain",
          "type": "string"
        },
        {
          "internalType": "string",
          "name": "sourceAddress",
          "type": "string"
        },
        {
          "internalType": "bytes",
          "name": "payload",
          "type": "bytes"
        },
        {
          "internalType": "string",
          "name": "tokenSymbol",
          "type": "string"
        },
        {
          "internalType": "uint256",
          "name": "amount",
          "type": "uint256"
        }
      ],
      "name": "executeWithToken",
      "outputs": [],
      "stateMutability": "nonpayable",
      "type": "function"
    },
    {
      "inputs": [],
      "name": "gateway",
      "outputs": [
        {
          "internalType": "contract IAxelarGateway",
          "name": "",
          "type": "address"
        }
      ],
      "stateMutability": "view",
      "type": "function"
    },
    {
      "inputs": [
        {
          "internalType": "bytes",
          "name": "swapCallData",
          "type": "bytes"
        }
      ],
      "name": "swapWith1Inch",
      "outputs": [],
      "stateMutability": "nonpayable",
      "type": "function"
    }
  ],
  "bytecode": {
    "object": "0x60a060405234801561001057600080fd5b50604051610a72380380610a7283398101604081905261002f91610069565b806001600160a01b0381166100575760405163e6c4247b60e01b815260040160405180910390fd5b6001600160a01b031660805250610099565b60006020828403121561007b57600080fd5b81516001600160a01b038116811461009257600080fd5b9392505050565b6080516109aa6100c860003960008181605601528181610100015281816101f4015261048101526109aa6000f3fe608060405234801561001057600080fd5b506004361061004c5760003560e01c8063116191b6146100515780631a98b2e01461009457806349160658146100a95780637ecd83ba146100bc575b600080fd5b6100787f000000000000000000000000000000000000000000000000000000000000000081565b6040516001600160a01b03909116815260200160405180910390f35b6100a76100a2366004610654565b6100cf565b005b6100a76100b736600461072e565b6101c3565b6100a76100ca3660046107d2565b61029d565b600085856040516100e1929190610814565b604051908190038120631876eed960e01b825291506001600160a01b037f00000000000000000000000000000000000000000000000000000000000000001690631876eed990610145908e908e908e908e908e9089908d908d908d9060040161084d565b6020604051808303816000875af1158015610164573d6000803e3d6000fd5b505050506040513d601f19601f8201168201806040525081019061018891906108ac565b6101a557604051631403112d60e21b815260040160405180910390fd5b6101b68a8a8a8a8a8a8a8a8a610465565b5050505050505050505050565b600082826040516101d5929190610814565b604051908190038120635f6970c360e01b825291506001600160a01b037f00000000000000000000000000000000000000000000000000000000000000001690635f6970c390610233908b908b908b908b908b9089906004016108d5565b6020604051808303816000875af1158015610252573d6000803e3d6000fd5b505050506040513d601f19601f8201168201806040525081019061027691906108ac565b61029357604051631403112d60e21b815260040160405180910390fd5b5050505050505050565b6040516370a0823160e01b815230600482015260009073eb466342c4d449bc9f53a865d5cb90586f405215906370a0823190602401602060405180830381865afa1580156102ef573d6000803e3d6000fd5b505050506040513d601f19601f820116820180604052508101906103139190610916565b60405163095ea7b360e01b8152731111111254eeb25477b68fb85ed929f73a96058260048201526024810182905290915073eb466342c4d449bc9f53a865d5cb90586f4052159063095ea7b3906044016020604051808303816000875af1158015610382573d6000803e3d6000fd5b505050506040513d601f19601f820116820180604052508101906103a691906108ac565b50600080731111111254eeb25477b68fb85ed929f73a9605826001600160a01b031685856040516103d8929190610814565b6000604051808303816000865af19150503d8060008114610415576040519150601f19603f3d011682016040523d82523d6000602084013e61041a565b606091505b50915091508161045e5760405162461bcd60e51b815260206004820152600b60248201526a1cddd85c0819985a5b195960aa1b604482015260640160405180910390fd5b5050505050565b6040516349ad89fb60e11b815230906000906001600160a01b037f0000000000000000000000000000000000000000000000000000000000000000169063935b13f6906104b8908890889060040161092f565b602060405180830381865afa1580156104d5573d6000803e3d6000fd5b505050506040513d601f19601f820116820180604052508101906104f9919061094b565b60405163a9059cbb60e01b81526001600160a01b038481166004830152602482018690529192509082169063a9059cbb906044016020604051808303816000875af115801561054c573d6000803e3d6000fd5b505050506040513d601f19601f8201168201806040525081019061057091906108ac565b5061057b878761029d565b60405163e8eda9df60e01b81526001600160a01b03808316600483015260248201859052831660448201526000606482015273a238dd80c259a72e81d7e4664a9801593f98d1c59063e8eda9df90608401600060405180830381600087803b1580156105e657600080fd5b505af11580156105fa573d6000803e3d6000fd5b505050505050505050505050505050565b60008083601f84011261061d57600080fd5b50813567ffffffffffffffff81111561063557600080fd5b60208301915083602082850101111561064d57600080fd5b9250929050565b60008060008060008060008060008060c08b8d03121561067357600080fd5b8a35995060208b013567ffffffffffffffff8082111561069257600080fd5b61069e8e838f0161060b565b909b50995060408d01359150808211156106b757600080fd5b6106c38e838f0161060b565b909950975060608d01359150808211156106dc57600080fd5b6106e88e838f0161060b565b909750955060808d013591508082111561070157600080fd5b5061070e8d828e0161060b565b9150809450508092505060a08b013590509295989b9194979a5092959850565b60008060008060008060006080888a03121561074957600080fd5b87359650602088013567ffffffffffffffff8082111561076857600080fd5b6107748b838c0161060b565b909850965060408a013591508082111561078d57600080fd5b6107998b838c0161060b565b909650945060608a01359150808211156107b257600080fd5b506107bf8a828b0161060b565b989b979a50959850939692959293505050565b600080602083850312156107e557600080fd5b823567ffffffffffffffff8111156107fc57600080fd5b6108088582860161060b565b90969095509350505050565b8183823760009101908152919050565b81835281816020850137506000828201602090810191909152601f909101601f19169091010190565b89815260c06020820152600061086760c083018a8c610824565b828103604084015261087a81898b610824565b90508660608401528281036080840152610895818688610824565b9150508260a08301529a9950505050505050505050565b6000602082840312156108be57600080fd5b815180151581146108ce57600080fd5b9392505050565b8681526080602082015260006108ef608083018789610824565b8281036040840152610902818688610824565b915050826060830152979650505050505050565b60006020828403121561092857600080fd5b5051919050565b602081526000610943602083018486610824565b949350505050565b60006020828403121561095d57600080fd5b81516001600160a01b03811681146108ce57600080fdfea2646970667358221220b5e20283fb7732ae59043876b10cef8c8db9cc1c2eb77022330fbc25cab8089e64736f6c63430008140033",
    "linkReferences": {}
  },
  "methodIdentifiers": {
    "execute(bytes32,string,string,bytes)": "49160658",
    "executeWithToken(bytes32,string,string,bytes,string,uint256)": "1a98b2e0",
    "gateway()": "116191b6",
    "swapWith1Inch(bytes)": "7ecd83ba"
  },
  "id": 22
}