{
  "abi": [
    {
      "inputs": [],
      "name": "payGas",
      "outputs": [],
      "stateMutability": "payable",
      "type": "function"
    }
  ],
  "bytecode": {
    "object": "0x6080604052600080546001600160a01b031990811673e432150cce91c13a887f7d836923d5597add8e3117909155600180548216732d5d7d31f671f86c782533cc367f14109a082712179055600280549091167357e13d4a517cae90f4680b3c4e8637495d3858a617905534801561007657600080fd5b506106f6806100866000396000f3fe60806040526004361061001e5760003560e01c80636e5975a214610023575b600080fd5b61002b61002d565b005b600154600254604051636316100160e11b81526001600160a01b039283169263c62c200292674563918244f4000092610085929091169060649073ca85486e554c15f0721c815520b10d0874669572906004016100b9565b6000604051808303818588803b15801561009e57600080fd5b505af11580156100b2573d6000803e3d6000fd5b5050505050565b60018060a01b038416815260e06020820152600460e0820152636261736560e01b6101008201526000610120806040840152602a81840152507f3078413233333434316339346232653133656141393134373834396331656437610140830152696537373443303330343760b01b61016083015261018080606084015261067c81840161061281527f3078313261613363616630303030303030303030303030303030303030303030602082015260007f30303236323731646664646264323530303134663837663066333032633039398060408401527f64356137393862616231303030303030303030303030303030303030303030308060608501527f303065623436363334326334643434396263396635336138363564356362393060808501527f353836663430353231353030303030303030303030303030303030303030303060a08501527f303064396161656338366236356438366636613762356231623063343266666160c08501527f353331373130623663613030303030303030303030303030303030303030303060e0850152816101008501528061012085015250507f30306132333334343163393462326531336561613931343738343963316564376101408301527f65373734633033303437303030303030303030303030303030303030303030306101608301527f3030303030303030303030303030303030303030303030303030303030303030806101808401527f3030303030303030303130303030303030303030303030303030303030303030806101a0850152816101c0850152806101e085015250806102008401527f3030303030303030303430303030303030303030303030303030303030303030610220840152806102408401527f3030303030303031343030303030303030303030303030303030303030303030610260840152806102808401527f30303030303030313630303030303030303030303030303030303030303030306102a0840152806102c0840152806102e0840152806103008401527f3030303030303031366530303030303030303030303030303030303030303030610320840152806103408401527f30303031353035313236653131623933623631663632393164333563356132626103608401527f65613061396666313639303830313630636665623436363334326334643434396103808401527f62633966353361383635643563623930353836663430353231353030303466346103a08401527f31373636643830303030303030303030303030303030303030303030303030306103c0840152806103e0840152806104008401528061042084015280610440840152806104608401527f30303030613030303030303030303030303030303030303030303030303031316104808401527f31313131313235346565623235343737623638666238356564393239663733616104a08401527f39363035383230303030303030303030303030303030303030303030303030306104c08401527f30303030303030303030303030303030303030303030303030303030303036356104e08401527f3136356633633030303030303030303030303030303030303030303030303030610500840152806105208401527f30303030303130303030303030303030303030303030303030303030303065626105408401527f34363633343263346434343962633966353361383635643563623930353836666105608401527f34303532313530303030303030303030303030303030303030303030303064396105808401527f61616563383662363564383666366137623562316230633432666661353331376105a08401527f31306236636130303030303030303030303030303030303030303030303030306105c0840152806105e0840152507f30303030303130303030303030303030303030303030303030303030303030306106008301527106060606060606060606070c462c6c6c2c6760731b61062083015261064082019050919050565b83810360808501526005815264757573646360d81b602082015260a084018690526001600160a01b03851660c085015260400191506106b89050565b94935050505056fea2646970667358221220a9ca8716629aaac647f74f0ccde9b17e5cf6567c12a5fadcf83689837a0492bc64736f6c63430008140033",
    "linkReferences": {}
  },
  "methodIdentifiers": {
    "payGas()": "6e5975a2"
  },
  "id": 23
}