{
  "abi": [
    {
      "inputs": [
        {
          "internalType": "address",
          "name": "sender",
          "type": "address"
        }
      ],
      "name": "payGas",
      "outputs": [],
      "stateMutability": "payable",
      "type": "function"
    }
  ],
  "bytecode": {
    "object": "0x6080604052600080546001600160a01b031990811673e432150cce91c13a887f7d836923d5597add8e311790915560018054909116732d5d7d31f671f86c782533cc367f14109a08271217905534801561005857600080fd5b5061072d806100686000396000f3fe60806040526004361061001e5760003560e01c80638f7af6bb14610023575b600080fd5b6100366100313660046100c0565b610038565b005b600154604051636316100160e11b81526001600160a01b039091169063c62c200290674563918244f400009061008b90859060649073ca85486e554c15f0721c815520b10d0874669572906004016100f0565b6000604051808303818588803b1580156100a457600080fd5b505af11580156100b8573d6000803e3d6000fd5b505050505050565b6000602082840312156100d257600080fd5b81356001600160a01b03811681146100e957600080fd5b9392505050565b60018060a01b038416815260e06020820152600460e0820152636261736560e01b6101008201526000610120806040840152602a81840152507f3078413233333434316339346232653133656141393134373834396331656437610140830152696537373443303330343760b01b6101608301526101808060608401526106b381840161061281527f3078313261613363616630303030303030303030303030303030303030303030602082015260007f30303236323731646664646264323530303134663837663066333032633039398060408401527f64356137393862616231303030303030303030303030303030303030303030308060608501527f303065623436363334326334643434396263396635336138363564356362393060808501527f353836663430353231353030303030303030303030303030303030303030303060a08501527f303064396161656338366236356438366636613762356231623063343266666160c08501527f353331373130623663613030303030303030303030303030303030303030303060e0850152816101008501528061012085015250507f30306132333334343163393462326531336561613931343738343963316564376101408301527f65373734633033303437303030303030303030303030303030303030303030306101608301527f3030303030303030303030303030303030303030303030303030303030303030806101808401527f3030303030303030303130303030303030303030303030303030303030303030806101a0850152816101c0850152806101e085015250806102008401527f3030303030303030303430303030303030303030303030303030303030303030610220840152806102408401527f3030303030303031343030303030303030303030303030303030303030303030610260840152806102808401527f30303030303030313630303030303030303030303030303030303030303030306102a0840152806102c0840152806102e0840152806103008401527f3030303030303031366530303030303030303030303030303030303030303030610320840152806103408401527f30303031353035313236653131623933623631663632393164333563356132626103608401527f65613061396666313639303830313630636665623436363334326334643434396103808401527f62633966353361383635643563623930353836663430353231353030303466346103a08401527f31373636643830303030303030303030303030303030303030303030303030306103c0840152806103e0840152806104008401528061042084015280610440840152806104608401527f30303030613030303030303030303030303030303030303030303030303031316104808401527f31313131313235346565623235343737623638666238356564393239663733616104a08401527f39363035383230303030303030303030303030303030303030303030303030306104c08401527f30303030303030303030303030303030303030303030303030303030303036356104e08401527f3136356633633030303030303030303030303030303030303030303030303030610500840152806105208401527f30303030303130303030303030303030303030303030303030303030303065626105408401527f34363633343263346434343962633966353361383635643563623930353836666105608401527f34303532313530303030303030303030303030303030303030303030303064396105808401527f61616563383662363564383666366137623562316230633432666661353331376105a08401527f31306236636130303030303030303030303030303030303030303030303030306105c0840152806105e0840152507f30303030303130303030303030303030303030303030303030303030303030306106008301527106060606060606060606070c462c6c6c2c6760731b61062083015261064082019050919050565b83810360808501526005815264757573646360d81b602082015260a084018690526001600160a01b03851660c085015260400191506106ef9050565b94935050505056fea2646970667358221220658355f6c2024701e9acc2d1461e33b82b1b80e8e45c91ad23b23a8bfafa858664736f6c63430008140033",
    "linkReferences": {}
  },
  "methodIdentifiers": {
    "payGas(address)": "8f7af6bb"
  },
  "id": 23
}