{
  "abi": [
    {
      "inputs": [
        {
          "internalType": "address",
          "name": "gateway_",
          "type": "address"
        }
      ],
      "stateMutability": "nonpayable",
      "type": "constructor"
    },
    {
      "inputs": [],
      "name": "InvalidAddress",
      "type": "error"
    },
    {
      "inputs": [],
      "name": "NotApprovedByGateway",
      "type": "error"
    },
    {
      "inputs": [
        {
          "internalType": "bytes",
          "name": "payload",
          "type": "bytes"
        },
        {
          "internalType": "uint256",
          "name": "amount",
          "type": "uint256"
        },
        {
          "internalType": "address",
          "name": "yieldToken",
          "type": "address"
        }
      ],
      "name": "ape",
      "outputs": [],
      "stateMutability": "nonpayable",
      "type": "function"
    },
    {
      "inputs": [
        {
          "internalType": "bytes32",
          "name": "commandId",
          "type": "bytes32"
        },
        {
          "internalType": "string",
          "name": "sourceChain",
          "type": "string"
        },
        {
          "internalType": "string",
          "name": "sourceAddress",
          "type": "string"
        },
        {
          "internalType": "bytes",
          "name": "payload",
          "type": "bytes"
        }
      ],
      "name": "execute",
      "outputs": [],
      "stateMutability": "nonpayable",
      "type": "function"
    },
    {
      "inputs": [
        {
          "internalType": "bytes32",
          "name": "commandId",
          "type": "bytes32"
        },
        {
          "internalType": "string",
          "name": "sourceChain",
          "type": "string"
        },
        {
          "internalType": "string",
          "name": "sourceAddress",
          "type": "string"
        },
        {
          "internalType": "bytes",
          "name": "payload",
          "type": "bytes"
        },
        {
          "internalType": "string",
          "name": "tokenSymbol",
          "type": "string"
        },
        {
          "internalType": "uint256",
          "name": "amount",
          "type": "uint256"
        }
      ],
      "name": "executeWithToken",
      "outputs": [],
      "stateMutability": "nonpayable",
      "type": "function"
    },
    {
      "inputs": [],
      "name": "gateway",
      "outputs": [
        {
          "internalType": "contract IAxelarGateway",
          "name": "",
          "type": "address"
        }
      ],
      "stateMutability": "view",
      "type": "function"
    }
  ],
  "bytecode": {
    "object": "0x60a060405234801561001057600080fd5b5060405161096d38038061096d83398101604081905261002f91610069565b806001600160a01b0381166100575760405163e6c4247b60e01b815260040160405180910390fd5b6001600160a01b031660805250610099565b60006020828403121561007b57600080fd5b81516001600160a01b038116811461009257600080fd5b9392505050565b60805161089e6100cf60003960008181605601528181610100015281816101e3015281816102a30152610349015261089e6000f3fe608060405234801561001057600080fd5b506004361061004c5760003560e01c8063116191b6146100515780631a98b2e01461009457806349160658146100a9578063a7d52e55146100bc575b600080fd5b6100787f000000000000000000000000000000000000000000000000000000000000000081565b6040516001600160a01b03909116815260200160405180910390f35b6100a76100a2366004610400565b6100cf565b005b6100a76100b73660046104da565b6101b2565b6100a76100ca3660046105b0565b61028c565b600085856040516100e192919061067b565b604051908190038120631876eed960e01b825291506001600160a01b037f00000000000000000000000000000000000000000000000000000000000000001690631876eed990610145908e908e908e908e908e9089908d908d908d906004016106b4565b6020604051808303816000875af1158015610164573d6000803e3d6000fd5b505050506040513d601f19601f820116820180604052508101906101889190610713565b6101a557604051631403112d60e21b815260040160405180910390fd5b5050505050505050505050565b600082826040516101c492919061067b565b604051908190038120635f6970c360e01b825291506001600160a01b037f00000000000000000000000000000000000000000000000000000000000000001690635f6970c390610222908b908b908b908b908b90899060040161073c565b6020604051808303816000875af1158015610241573d6000803e3d6000fd5b505050506040513d601f19601f820116820180604052508101906102659190610713565b61028257604051631403112d60e21b815260040160405180910390fd5b5050505050505050565b60405163095ea7b360e01b81526001600160a01b037f00000000000000000000000000000000000000000000000000000000000000001660048201526024810183905273eb466342c4d449bc9f53a865d5cb90586f4052159063095ea7b3906044016020604051808303816000875af115801561030d573d6000803e3d6000fd5b505050506040513d601f19601f820116820180604052508101906103319190610713565b50604051632d505c2160e21b81526001600160a01b037f0000000000000000000000000000000000000000000000000000000000000000169063b541708490610380908690869060040161077d565b600060405180830381600087803b15801561039a57600080fd5b505af11580156103ae573d6000803e3d6000fd5b50505050505050565b60008083601f8401126103c957600080fd5b50813567ffffffffffffffff8111156103e157600080fd5b6020830191508360208285010111156103f957600080fd5b9250929050565b60008060008060008060008060008060c08b8d03121561041f57600080fd5b8a35995060208b013567ffffffffffffffff8082111561043e57600080fd5b61044a8e838f016103b7565b909b50995060408d013591508082111561046357600080fd5b61046f8e838f016103b7565b909950975060608d013591508082111561048857600080fd5b6104948e838f016103b7565b909750955060808d01359150808211156104ad57600080fd5b506104ba8d828e016103b7565b9150809450508092505060a08b013590509295989b9194979a5092959850565b60008060008060008060006080888a0312156104f557600080fd5b87359650602088013567ffffffffffffffff8082111561051457600080fd5b6105208b838c016103b7565b909850965060408a013591508082111561053957600080fd5b6105458b838c016103b7565b909650945060608a013591508082111561055e57600080fd5b5061056b8a828b016103b7565b989b979a50959850939692959293505050565b634e487b7160e01b600052604160045260246000fd5b80356001600160a01b03811681146105ab57600080fd5b919050565b6000806000606084860312156105c557600080fd5b833567ffffffffffffffff808211156105dd57600080fd5b818601915086601f8301126105f157600080fd5b8135818111156106035761060361057e565b604051601f8201601f19908116603f0116810190838211818310171561062b5761062b61057e565b8160405282815289602084870101111561064457600080fd5b8260208601602083013760006020848301015280975050505050506020840135915061067260408501610594565b90509250925092565b8183823760009101908152919050565b81835281816020850137506000828201602090810191909152601f909101601f19169091010190565b89815260c0602082015260006106ce60c083018a8c61068b565b82810360408401526106e181898b61068b565b905086606084015282810360808401526106fc81868861068b565b9150508260a08301529a9950505050505050505050565b60006020828403121561072557600080fd5b8151801515811461073557600080fd5b9392505050565b86815260806020820152600061075660808301878961068b565b828103604084015261076981868861068b565b915050826060830152979650505050505050565b60a08152600460a0820152636261736560e01b60c08201526000602060e081840152602a60e08401527f3078413233333434316339346232653133656141393134373834396331656437610100840152696537373443303330343760b01b61012084015261014080604085015285518082860152600091505b80821015610815578682018301518583016101600152908201906107f6565b61016092506000838287010152601f19601f8201168501915050818482030160608501526108578282016005815264757573646360d81b602082015260400190565b92505050826080830152939250505056fea2646970667358221220c651edc42f1ca54e9b62e230d90482c12465f69ec72d55823e2c09cd4628ec0a64736f6c63430008140033",
    "linkReferences": {}
  },
  "methodIdentifiers": {
    "ape(bytes,uint256,address)": "a7d52e55",
    "execute(bytes32,string,string,bytes)": "49160658",
    "executeWithToken(bytes32,string,string,bytes,string,uint256)": "1a98b2e0",
    "gateway()": "116191b6"
  },
  "id": 22
}